{
  "_format": "hh-sol-artifact-1",
  "contractName": "Billing",
  "sourceName": "contracts/Billing.sol",
  "abi": [
    {
      "anonymous": false,
      "inputs": [
        {
          "indexed": false,
          "internalType": "address",
          "name": "sellerAddress",
          "type": "address"
        },
        {
          "indexed": false,
          "internalType": "address",
          "name": "receiverAddress",
          "type": "address"
        },
        {
          "indexed": false,
          "internalType": "string",
          "name": "buyerPhysicalAddress",
          "type": "string"
        },
        {
          "indexed": false,
          "internalType": "string",
          "name": "returnAddress",
          "type": "string"
        },
        {
          "indexed": false,
          "internalType": "string",
          "name": "date",
          "type": "string"
        },
        {
          "indexed": false,
          "internalType": "string[]",
          "name": "products",
          "type": "string[]"
        },
        {
          "indexed": false,
          "internalType": "uint256",
          "name": "quantity",
          "type": "uint256"
        },
        {
          "indexed": false,
          "internalType": "string",
          "name": "description",
          "type": "string"
        },
        {
          "indexed": false,
          "internalType": "uint256",
          "name": "price",
          "type": "uint256"
        },
        {
          "indexed": false,
          "internalType": "uint256",
          "name": "transactionID",
          "type": "uint256"
        }
      ],
      "name": "UpdateBill",
      "type": "event"
    },
    {
      "inputs": [
        {
          "internalType": "address",
          "name": "receiverAddress",
          "type": "address"
        },
        {
          "internalType": "string",
          "name": "buyerPhysicalAddress",
          "type": "string"
        },
        {
          "internalType": "string",
          "name": "returnAddress",
          "type": "string"
        },
        {
          "internalType": "string",
          "name": "date",
          "type": "string"
        },
        {
          "internalType": "string[]",
          "name": "products",
          "type": "string[]"
        },
        {
          "internalType": "uint256",
          "name": "quantity",
          "type": "uint256"
        },
        {
          "internalType": "string",
          "name": "description",
          "type": "string"
        },
        {
          "internalType": "uint256",
          "name": "price",
          "type": "uint256"
        },
        {
          "internalType": "uint256",
          "name": "transactionID",
          "type": "uint256"
        }
      ],
      "name": "addToBlockChain",
      "outputs": [],
      "stateMutability": "nonpayable",
      "type": "function"
    },
    {
      "inputs": [
        {
          "internalType": "uint256",
          "name": "transactionID",
          "type": "uint256"
        }
      ],
      "name": "find",
      "outputs": [
        {
          "components": [
            {
              "internalType": "address",
              "name": "sellerAddress",
              "type": "address"
            },
            {
              "internalType": "address",
              "name": "receiverAddress",
              "type": "address"
            },
            {
              "internalType": "string",
              "name": "buyerPhysicalAddress",
              "type": "string"
            },
            {
              "internalType": "string",
              "name": "returnAddress",
              "type": "string"
            },
            {
              "internalType": "string",
              "name": "date",
              "type": "string"
            },
            {
              "internalType": "string[]",
              "name": "products",
              "type": "string[]"
            },
            {
              "internalType": "uint256",
              "name": "quantity",
              "type": "uint256"
            },
            {
              "internalType": "string",
              "name": "description",
              "type": "string"
            },
            {
              "internalType": "uint256",
              "name": "price",
              "type": "uint256"
            },
            {
              "internalType": "uint256",
              "name": "transactionID",
              "type": "uint256"
            }
          ],
          "internalType": "struct Billing.BillStruct",
          "name": "",
          "type": "tuple"
        }
      ],
      "stateMutability": "view",
      "type": "function"
    },
    {
      "inputs": [],
      "name": "getAllBills",
      "outputs": [
        {
          "components": [
            {
              "internalType": "address",
              "name": "sellerAddress",
              "type": "address"
            },
            {
              "internalType": "address",
              "name": "receiverAddress",
              "type": "address"
            },
            {
              "internalType": "string",
              "name": "buyerPhysicalAddress",
              "type": "string"
            },
            {
              "internalType": "string",
              "name": "returnAddress",
              "type": "string"
            },
            {
              "internalType": "string",
              "name": "date",
              "type": "string"
            },
            {
              "internalType": "string[]",
              "name": "products",
              "type": "string[]"
            },
            {
              "internalType": "uint256",
              "name": "quantity",
              "type": "uint256"
            },
            {
              "internalType": "string",
              "name": "description",
              "type": "string"
            },
            {
              "internalType": "uint256",
              "name": "price",
              "type": "uint256"
            },
            {
              "internalType": "uint256",
              "name": "transactionID",
              "type": "uint256"
            }
          ],
          "internalType": "struct Billing.BillStruct[]",
          "name": "",
          "type": "tuple[]"
        }
      ],
      "stateMutability": "view",
      "type": "function"
    }
  ],
  "bytecode": "0x608060405234801561001057600080fd5b506111b8806100206000396000f3fe608060405234801561001057600080fd5b50600436106100415760003560e01c80633e530e5b14610046578063818e1f1a1461006f578063b00d33a114610084575b600080fd5b610059610054366004610e02565b610099565b60405161006691906110ca565b60405180910390f35b61007761049e565b604051610066919061106a565b610097610092366004610d08565b610860565b005b6100a1610a58565b6000545b82600082815481106100c757634e487b7160e01b600052603260045260246000fd5b90600052602060002090600a0201600901541415610487576000818154811061010057634e487b7160e01b600052603260045260246000fd5b60009182526020918290206040805161014081018252600a90930290910180546001600160a01b039081168452600182015416938301939093526002830180549293929184019161015090611131565b80601f016020809104026020016040519081016040528092919081815260200182805461017c90611131565b80156101c95780601f1061019e576101008083540402835291602001916101c9565b820191906000526020600020905b8154815290600101906020018083116101ac57829003601f168201915b505050505081526020016003820180546101e290611131565b80601f016020809104026020016040519081016040528092919081815260200182805461020e90611131565b801561025b5780601f106102305761010080835404028352916020019161025b565b820191906000526020600020905b81548152906001019060200180831161023e57829003601f168201915b5050505050815260200160048201805461027490611131565b80601f01602080910402602001604051908101604052809291908181526020018280546102a090611131565b80156102ed5780601f106102c2576101008083540402835291602001916102ed565b820191906000526020600020905b8154815290600101906020018083116102d057829003601f168201915b5050505050815260200160058201805480602002602001604051908101604052809291908181526020016000905b828210156103c757838290600052602060002001805461033a90611131565b80601f016020809104026020016040519081016040528092919081815260200182805461036690611131565b80156103b35780601f10610388576101008083540402835291602001916103b3565b820191906000526020600020905b81548152906001019060200180831161039657829003601f168201915b50505050508152602001906001019061031b565b505050508152602001600682015481526020016007820180546103e990611131565b80601f016020809104026020016040519081016040528092919081815260200182805461041590611131565b80156104625780601f1061043757610100808354040283529160200191610462565b820191906000526020600020905b81548152906001019060200180831161044557829003601f168201915b5050505050815260200160088201548152602001600982015481525050915050610499565b806104918161110e565b9150506100a5565b919050565b60606000805480602002602001604051908101604052809291908181526020016000905b828210156108575760008481526020908190206040805161014081018252600a860290920180546001600160a01b039081168452600182015416938301939093526002830180549293929184019161051990611131565b80601f016020809104026020016040519081016040528092919081815260200182805461054590611131565b80156105925780601f1061056757610100808354040283529160200191610592565b820191906000526020600020905b81548152906001019060200180831161057557829003601f168201915b505050505081526020016003820180546105ab90611131565b80601f01602080910402602001604051908101604052809291908181526020018280546105d790611131565b80156106245780601f106105f957610100808354040283529160200191610624565b820191906000526020600020905b81548152906001019060200180831161060757829003601f168201915b5050505050815260200160048201805461063d90611131565b80601f016020809104026020016040519081016040528092919081815260200182805461066990611131565b80156106b65780601f1061068b576101008083540402835291602001916106b6565b820191906000526020600020905b81548152906001019060200180831161069957829003601f168201915b5050505050815260200160058201805480602002602001604051908101604052809291908181526020016000905b8282101561079057838290600052602060002001805461070390611131565b80601f016020809104026020016040519081016040528092919081815260200182805461072f90611131565b801561077c5780601f106107515761010080835404028352916020019161077c565b820191906000526020600020905b81548152906001019060200180831161075f57829003601f168201915b5050505050815260200190600101906106e4565b505050508152602001600682015481526020016007820180546107b290611131565b80601f01602080910402602001604051908101604052809291908181526020018280546107de90611131565b801561082b5780601f106108005761010080835404028352916020019161082b565b820191906000526020600020905b81548152906001019060200180831161080e57829003601f168201915b5050505050815260200160088201548152602001600982015481525050815260200190600101906104c2565b50505050905090565b60408051610140810182523381526001600160a01b038b811660208084019182529383018c8152606084018c9052608084018b905260a084018a905260c0840189905260e0840188905261010084018790526101208401869052600080546001810182559080528451600a9091027f290decd9548b62a8d60345a988386fc84ba6bc95484008f6362f93160ef3e563810180549286166001600160a01b031993841617815593517f290decd9548b62a8d60345a988386fc84ba6bc95484008f6362f93160ef3e564820180549190961692169190911790935551805193949193610971937f290decd9548b62a8d60345a988386fc84ba6bc95484008f6362f93160ef3e56501929190910190610abd565b506060820151805161098d916003840191602090910190610abd565b50608082015180516109a9916004840191602090910190610abd565b5060a082015180516109c5916005840191602090910190610b41565b5060c0820151600682015560e082015180516109eb916007840191602090910190610abd565b506101008201518160080155610120820151816009015550507f495d471ce1d52ef06cd1e538891f89a0d5bc8830076abc13b404a5d1c10cafa9338a8a8a8a8a8a8a8a8a604051610a459a99989796959493929190610f89565b60405180910390a1505050505050505050565b60405180610140016040528060006001600160a01b0316815260200160006001600160a01b0316815260200160608152602001606081526020016060815260200160608152602001600081526020016060815260200160008152602001600081525090565b828054610ac990611131565b90600052602060002090601f016020900481019282610aeb5760008555610b31565b82601f10610b0457805160ff1916838001178555610b31565b82800160010185558215610b31579182015b82811115610b31578251825591602001919060010190610b16565b50610b3d929150610b9a565b5090565b828054828255906000526020600020908101928215610b8e579160200282015b82811115610b8e5782518051610b7e918491602090910190610abd565b5091602001919060010190610b61565b50610b3d929150610baf565b5b80821115610b3d5760008155600101610b9b565b80821115610b3d576000610bc38282610bcc565b50600101610baf565b508054610bd890611131565b6000825580601f10610bea5750610c08565b601f016020900490600052602060002090810190610c089190610b9a565b50565b80356001600160a01b038116811461049957600080fd5b600082601f830112610c32578081fd5b8135602067ffffffffffffffff821115610c4e57610c4e61116c565b610c5b81828402016110e4565b82815281810190858301855b85811015610c9057610c7e898684358b0101610c9d565b84529284019290840190600101610c67565b5090979650505050505050565b600082601f830112610cad578081fd5b813567ffffffffffffffff811115610cc757610cc761116c565b610cda601f8201601f19166020016110e4565b818152846020838601011115610cee578283fd5b816020850160208301379081016020019190915292915050565b60008060008060008060008060006101208a8c031215610d26578485fd5b610d2f8a610c0b565b985060208a013567ffffffffffffffff80821115610d4b578687fd5b610d578d838e01610c9d565b995060408c0135915080821115610d6c578687fd5b610d788d838e01610c9d565b985060608c0135915080821115610d8d578687fd5b610d998d838e01610c9d565b975060808c0135915080821115610dae578687fd5b610dba8d838e01610c22565b965060a08c0135955060c08c0135915080821115610dd6578485fd5b50610de38c828d01610c9d565b93505060e08a013591506101008a013590509295985092959850929598565b600060208284031215610e13578081fd5b5035919050565b6001600160a01b03169052565b60008282518085526020808601955080818302840101818601855b84811015610c9057601f19868403018952610e5e838351610e70565b98840198925090830190600101610e42565b60008151808452815b81811015610e9557602081850181015186830182015201610e79565b81811115610ea65782602083870101525b50601f01601f19169290920160200192915050565b6000610140610ecb848451610e1a565b6020830151610edd6020860182610e1a565b506040830151816040860152610ef582860182610e70565b91505060608301518482036060860152610f0f8282610e70565b91505060808301518482036080860152610f298282610e70565b91505060a083015184820360a0860152610f438282610e27565b91505060c083015160c085015260e083015184820360e0860152610f678282610e70565b6101008581015190870152610120948501519490950193909352509192915050565b600061014060018060a01b03808e1684526020818e1681860152826040860152610fb58386018e610e70565b92508483036060860152610fc9838d610e70565b92508483036080860152610fdd838c610e70565b85810360a08701528a51808252909350818401925081810284018201828c01865b8381101561102c57601f1987840301865261101a838351610e70565b95850195925090840190600101610ffe565b50508a60c088015286810360e0880152611046818b610e70565b9550505050505083610100830152826101208301529b9a5050505050505050505050565b6000602080830181845280855180835260408601915060408482028701019250838701855b828110156110bd57603f198886030184526110ab858351610ebb565b9450928501929085019060010161108f565b5092979650505050505050565b6000602082526110dd6020830184610ebb565b9392505050565b60405181810167ffffffffffffffff811182821017156111065761110661116c565b604052919050565b60008161112957634e487b7160e01b81526011600452602481fd5b506000190190565b60028104600182168061114557607f821691505b6020821081141561116657634e487b7160e01b600052602260045260246000fd5b50919050565b634e487b7160e01b600052604160045260246000fdfea2646970667358221220d5deee14466bfd573ab251f7bba2f6043130a4fe83563054d3e965c2125b20cf64736f6c63430008000033",
  "linkReferences": {},
  "deployedLinkReferences": {}
}